:020000040800F2
:1000000010200020F90800086D0800086F0800089B
:100010007108000873080008750800080000000057
:100020000000000000000000000000007708000849
:1000300079080008000000007B0800087D0800081F
:10004000190900081D0900082109000825090008F0
:10005000290900082D0900083109000835090008A0
:10006000390900083D090008410900084509000850
:10007000490900084D090008510900085509000800
:10008000590900085D0900086109000865090008B0
:10009000690900086D090008710900087509000860
:1000A000790900087D090008810900088509000810
:1000B000D7020008890900088D0900089109000885
:1000C00095090008990900089D090008A109000880
:1000D000A5090008A9090008AD090008B109000830
:1000E000B5090008B9090008BD090008C1090008E0
:1000F000C5090008C9090008CD090008D109000890
:10010000D5090008D9090008DD090008E10900083F
:10011000E5090008E9090008ED090008F1090008EF
:10012000F5090008F9090008FD090008010A00089E
:10013000050A0008090A00080D0A0008110A00084B
:10014000150A0008190A00081D0A0008210A0008FB
:10015000250A0008290A00082D0A0008310A0008AB
:10016000350A0008390A00083D0A0008410A00085B
:10017000450A0008490A00084D0A0008510A00080B
:10018000550A0008590A0008E0B50121012000F0D5
:1001900025F901208DF804002020009000208DF822
:1001A000060000208DF807006946544800F040F929
:1001B00007BD38B50400524D8021280000F01EFA1A
:1001C0000028F8D0E4B2210089B2280000F012FA29
:1001D00031BD10B5040003E02078FFF7EAFF641C8E
:1001E00020780028F8D110BD10B586B0012101207B
:1001F00000F0F4F802208DF8040000208DF80600CD
:1002000001208DF807000C2000903C4C694620002E
:1002100000F00EF907220221200000F051F9072218
:100220000321200000F04CF901215FF4003000F0C0
:10023000E3F85FF4E13002900020ADF80C000020FC
:10024000ADF80E000020ADF810000C20ADF8120043
:100250002B4C02A9200000F05BF90121200000F0E6
:10026000BBF906B010BD1FB504000121012000F04C
:10027000C3F843F67F60ADF80400641E02940020CA
:10028000ADF8060001A95FF0804000F0D9F9012126
:100290005FF0804000F046FA012201215FF08040CB
:1002A00000F022FA01215FF0804000F000FA4FF4E4
:1002B000C06000F03BFA1C208DF8000000208DF893
:1002C000010001208DF8020001208DF8030068462E
:1002D00000F031FA1FBD80B501215FF0804000F0D1
:1002E0000FFA002807D00748FFF773FF01215FF0DE
:1002F000804000F017FA01BD00000000000002403D
:1003000000440040E408000880B5FFF73DFF4FF4CB
:100310007A70FFF7A8FFFFF767FFFEE710B4002130
:1003200000210021022100210221DFF8E8201168CC
:1003300011F00C01002904D0042906D0082908D0A6
:100340002DE0DFF8D81001602CE0DFF8D410016058
:1003500028E0DFF8C4402168C1F38051236813F01E
:100360003F03002909D0DFF8B810B1FBF3F321688F
:10037000C1F3881101FB03F108E0DFF8A010B1FB25
:10038000F3F32168C1F3881101FB03F12368C3F380
:1003900001435B1C5B00B1FBF3F1016002E0DFF89D
:1003A0007C100160116811F0F0010909DFF8743068
:1003B000595C0468CC404460116811F4E051890A2A
:1003C000595C4468CC408460116811F46041490B69
:1003D000595C4268CA40C26010BC7047C9B200296B
:1003E00004D011490A681043086004E00E490A6805
:1003F00032EA000008607047C9B2002904D00B49F6
:100400000A681043086004E008490A6832EA0000FC
:100410000860704708380240043802400024F400A5
:1004200040787D0100000020303802404038024012
:10043000F0B400220022002200233DE0012414FA3F
:1004400003F20D681540954235D1032502685E0020
:1004500015FA06F6B243026006680F795A00974013
:100460003E4306600A79012A02D00A79022A16D18F
:1004700082685E0015FA06F6B243826086684F799C
:100480005A0097403E43866042689C4032EA04042A
:10049000446042688C799C40A4B222434260C468A4
:1004A0005A00954034EA0505C560C468CD795A0004
:1004B00095402C43C4605B1C102BBFD3F0BC70472D
:1004C00070B400230023D2B28B0013F01C039A40B7
:1004D0000B009BB2DB1000EB83030C00A4B2E41012
:1004E00000EB8404246A0F258E0016F01C06B5402C
:1004F000AC431C620B009BB2DB1000EB83031B6A56
:100500001A4389B2C91000EB8100026270BC7047C7
:1005100038B584B005000C00002000200020002029
:10052000A0890028298A31F44051E08801432982BA
:10053000A98928480140A088014320890143608996
:100540000143A981A98A31F44071A0890143A9829C
:100550006846FFF7E3FE1D48854202D01C488542ED
:1005600001D1039900E00299A889000406D5192059
:10057000414320684000B1FBF0F205E019204143FF
:1005800020688000B1FBF0F26420B2FBF0F10901B9
:100590000B001B097FF0630000FB0322A889000405
:1005A00008D5D20032326420B2FBF0F010F0070020
:1005B000014307E0120132326420B2FBF0F010F088
:1005C0000F000143298105B030BD0000001001403B
:1005D00000140140F3E9FFFFC9B2002904D081896A
:1005E00051F40051818104E082894DF6FF710A4087
:1005F00082817047C905C90D8180704700220A00B9
:1006000092B2B2F5007F0088084201D0012000E0DC
:100610000020C0B270470EE0026843680244083010
:100620005FEAC37C44BF4B445B1E52F804CB43F8E3
:1006300004CB091FF9D150F8041B0029ECD17047F5
:1006400010B400220488214B98420ED0254A9042D3
:100650000BD0B0F1804F08D01D4A904205D01D4A02
:10066000904202D01C4A904205D14FF68F7214403E
:1006700022004C881443194A904208D0184A9042EC
:1006800005D04FF6FF42144022000C891443048029
:100690004A68C2620A880285984202D0114A904292
:1006A00001D1897A01860121818210BC7047C9B2CB
:1006B000002904D0018851F00101018004E0028882
:1006C0004FF6FE710A4002807047000000000140B2
:1006D0000004004000080040000C004000100040F2
:1006E0000014004000040140D2B2002A03D08289E5
:1006F0001143818103E0828932EA010181817047DF
:10070000002200220022028A0A408089014092B21F
:10071000002A04D089B2002901D0012000E0002085
:10072000C0B2704789B2C943018270471A49084371
:100730001A4908607047002100210F23C178002961
:100740001ED01649096811F4E061D1F5E061090A8B
:10075000D1F10402DBB20B41417891408278134021
:10076000194309010E4A0378D1540121027812F08D
:100770001F0291400B4A0078401142F8201009E016
:100780000121027812F01F029140074A00784011BF
:1007900042F82010704700000000FA050CED00E060
:1007A00000E400E000E100E080E100E00F480168C3
:1007B00051F4700101600E49086850F001000860B2
:1007C00000200C4A10600A680B4802400A600B487F
:1007D0000B4A1060086830F4802008600020094946
:1007E00008605FF0006008490860704788ED00E02D
:1007F0000038024008380240FFFFF6FE10300024A7
:10080000043802400C38024008ED00E010B50749FA
:1008100079441831064C7C44163404E00A68081DFB
:10082000114488470146A142F8D110BD2C000000B8
:100830003C0000004EF68851CEF20001086840F4FA
:1008400070000860BFF34F8FBFF36F8F4FF00170E0
:10085000E1EE100A70470000BFFDFFFF100000002E
:10086000A800000000000020000000007047FEE724
:10087000FEE7FEE7FEE770477047704770470000ED
:1008800000F00DF8002801D0FFF7C0FFAFF30080A3
:100890000020AFF30080FFF737FD00F002F80120E1
:1008A000704700F001B800000746384600F002F833
:1008B000FBE7000080B5AFF30080024A110018206A
:1008C000ABBEFBE7260002000548014603B46846BC
:1008D00080F30988AFF30080FFF7ACFFFFF7D0FF8C
:1008E000A5EDF5FE57656C636F6D6520746F20553F
:1008F000535241540A000000014880470148004714
:10090000AD070008C9080008000000000102030448
:100910000102030406070809FFF7FEBFFFF7FEBF49
:10092000FFF7FEBFFFF7FEBFFFF7FEBFFFF7FEBFFB
:10093000FFF7FEBFFFF7FEBFFFF7FEBFFFF7FEBFEB
:10094000FFF7FEBFFFF7FEBFFFF7FEBFFFF7FEBFDB
:10095000FFF7FEBFFFF7FEBFFFF7FEBFFFF7FEBFCB
:10096000FFF7FEBFFFF7FEBFFFF7FEBFFFF7FEBFBB
:10097000FFF7FEBFFFF7FEBFFFF7FEBFFFF7FEBFAB
:10098000FFF7FEBFFFF7FEBFFFF7FEBFFFF7FEBF9B
:10099000FFF7FEBFFFF7FEBFFFF7FEBFFFF7FEBF8B
:1009A000FFF7FEBFFFF7FEBFFFF7FEBFFFF7FEBF7B
:1009B000FFF7FEBFFFF7FEBFFFF7FEBFFFF7FEBF6B
:1009C000FFF7FEBFFFF7FEBFFFF7FEBFFFF7FEBF5B
:1009D000FFF7FEBFFFF7FEBFFFF7FEBFFFF7FEBF4B
:1009E000FFF7FEBFFFF7FEBFFFF7FEBFFFF7FEBF3B
:1009F000FFF7FEBFFFF7FEBFFFF7FEBFFFF7FEBF2B
:100A0000FFF7FEBFFFF7FEBFFFF7FEBFFFF7FEBF1A
:100A1000FFF7FEBFFFF7FEBFFFF7FEBFFFF7FEBF0A
:100A2000FFF7FEBFFFF7FEBFFFF7FEBFFFF7FEBFFA
:100A3000FFF7FEBFFFF7FEBFFFF7FEBFFFF7FEBFEA
:100A4000FFF7FEBFFFF7FEBFFFF7FEBFFFF7FEBFDA
:0C0A5000FFF7FEBFFFF7FEBFFFF7FEBF81
:04000005080008C91E
:00000001FF
