:020000040800F2
:1000000028200020F5090008230900082509000818
:1000100027090008290900082B0900080000000032
:100020000000000000000000000000002D09000892
:100030002F090008000000003109000833090008FA
:10004000050A0008090A00080D0A0008110A00083C
:10005000150A0008190A00081D0A0008210A0008EC
:10006000250A0008290A00082D0A0008310A00089C
:10007000350A0008390A00083D0A0008410A00084C
:10008000450A0008490A0008790300084D0A0008DB
:10009000510A0008550A0008590A00085D0A0008BC
:1000A000610A0008650A0008690A00086D0A00086C
:1000B000710A0008750A0008790A00087D0A00081C
:1000C000810A0008850A0008890A00088D0A0008CC
:1000D000910A0008950A0008990A00089D0A00087C
:1000E000A10A0008A50A0008A90A0008AD0A00082C
:1000F000B10A0008B50A0008B90A0008BD0A0008DC
:10010000C10A0008C50A0008C90A0008CD0A00088B
:10011000D10A0008D50A0008D90A0008DD0A00083B
:10012000E10A0008E50A0008E90A0008ED0A0008EB
:10013000F10A0008F50A0008F90A0008FD0A00089B
:10014000010B0008050B0008090B00080D0B000847
:10015000110B0008150B0008190B00081D0B0008F7
:10016000210B0008250B0008290B00082D0B0008A7
:10017000310B0008350B0008390B00083D0B000857
:10018000410B0008450B000801B402E00098401E36
:10019000009000980028F9D101B07047E0B5012126
:1001A000012000F079F901208DF804002020009052
:1001B00000208DF8060000208DF807006946AB4846
:1001C00000F08AF907BDE0B50121042000F064F9D0
:1001D00001208DF804004FF4FF70009000208DF88E
:1001E000060000208DF807006946A14800F074F968
:1001F0000121022000F050F901208DF804000F20A9
:10020000009000208DF8060000208DF80700694658
:10021000984800F061F907BD2DE9F04704000D0092
:1002200016001F00DFF84C820821404600F09CF9C0
:10023000DFF83C92DFF840A21AF80710490089B2B3
:10024000484600F091F942F210773800FFF79CFF22
:100250000421404600F088F91AF80610490089B2D6
:10026000484600F081F93800FFF78EFF0221404632
:1002700000F07AF91AF80510490089B2484600F0F2
:1002800073F93800FFF780FF0121404600F06CF958
:100290001AF80410490089B2484600F065F93800A0
:1002A000FFF772FFBDE8F087744A80B240F6E44180
:1002B000484340F6FF7190FBF1F010601068704702
:1002C00018B58DB00121042000F0E6F8012001905E
:1002D00003208DF8080000208DF80B0001A9644868
:1002E00000F0FAF84FF4C06000F046F912208DF8E3
:1002F000000001208DF8010002208DF8020001208D
:100300008DF80300684600F03CF901214FF480703D
:1003100000F0D0F80020099000200B905FF44030EE
:100320000A9009A800F08DF90020039000208DF8B4
:10033000100001208DF8110000200590002006908B
:100340000020079001208DF820004D4C03A92000CB
:1003500000F052F9002301220A21200000F08DF95B
:10036000012240F20521200000F0FCF901212000CB
:1003700000F076F90EB010BD38B5414C40F20525BD
:100380002900200000F0FFF9002827D029002000D4
:1003900000F011FA3B4D200000F0D9F928603A4CEA
:1003A0002168286841182160384D2868401C286061
:1003B0002868B0F57A7F11D320212C4800F0D7F8B7
:1003C0000120334908700020286020684FF47A71BA
:1003D000B0FBF1F02F4908600020206031BDF8B576
:1003E0002B4C00202070002026490860002027495F
:1003F0000860284D00202860002023490860FFF78E
:10040000CDFEFFF7E0FEFFF75BFF1D4800F09AF915
:1004100020780128FCD1194E286880B2FFF744FFEC
:1004200030600A2330680A21B0FBF1F20A203168FB
:100430006427B1FBF7F10A27D6F800C0D6F800E030
:10044000BEFBF3FE03FB1EC3B2FBF0FC00FB1C2251
:10045000B1FBF7F007FB101130684FF47A76B0FB70
:10046000F6F0FFF7D9FE00202070D1E7000002402F
:10047000000802400004024000000020100000209C
:10048000002001400C000020140000201C0000206F
:100490002000002018000020C9B2002904D00C4917
:1004A0000A681043086004E009490A6832EA00005B
:1004B00008607047C9B2002904D006490A68104391
:1004C000086004E003490A6832EA000008607047E7
:1004D0003038024044380240F0B4002200220022AA
:1004E00000233DE0012414FA03F20D681540954203
:1004F00035D1032502685E0015FA06F6B2430260A4
:1005000006680F795A0097403E4306600A79012A2F
:1005100002D00A79022A16D182685E0015FA06F620
:10052000B243826086684F795A0097403E438660A6
:1005300042689C4032EA0404446042688C799C40E2
:10054000A4B222434260C4685A00954034EA0505CB
:10055000C560C468CD795A0095402C43C4605B1CCB
:10056000102BBFD3F0BC704789B24161704742691C
:1005700089B25140416170471A4908431A490860DD
:100580007047002100210F23C17800291ED0164991
:10059000096811F4E061D1F5E061090AD1F10402C2
:1005A000DBB20B4141789140827813401943090135
:1005B0000E4A0378D1540121027812F01F029140B3
:1005C0000B4A0078401142F8201009E0012102781E
:1005D00012F01F029140074A0078401142F82010A3
:1005E000704700000000FA050CED00E000E400E0B8
:1005F00000E100E080E100E010B400220023446844
:10060000544A14400A7954EA02240A6814434460A4
:100610008468514A14400A691443CA6814438A68BA
:1006200014434A7954EA42048460C26A32F4700284
:10063000097D491E0B43DBB252EA0352C26210BC71
:1006400070470021454B1A6845490A4001680A4332
:1006500041680A4381680A43C06802431A607047D0
:10066000C9B2002904D0816851F00101816003E022
:1006700081684908490081607047F0B40024002473
:100680000C00E4B20A2C12DBC5680726B1F10A049B
:10069000032714FB07F4A640B543DBB2B1F10A040B
:1006A000032614FB06F4A3402B43C3600DE0056949
:1006B0000726032411FB04F4A640B543DBB2032450
:1006C00011FB04F4A3402B4303611300DBB2072B9F
:1006D00010DA446B1F25531E052613FB06F39D40BD
:1006E000AC43C9B2521E052312FB03F291402143D1
:1006F000416325E01300DBB20D2B10DA046B1F25DC
:10070000D31F052613FB06F39D40AC43C9B2D21F8D
:10071000052312FB03F291402143016310E0C46AF8
:100720001F25B2F10D03052613FB06F39D40AC43D4
:10073000C9B20D3A052312FB03F291402143C16275
:10074000F0BC7047816851F0804181607047C06C97
:1007500080B27047FFFEFFFCFDF7FFC0042301409D
:10076000E030FCFF0023C9B2012313FA01F1D2B239
:10077000002A03D042681143416003E0426832EA34
:1007800001014160704710B40022002200220A00DB
:1007900092B2120A92B24368012414FA01F119408C
:1007A0000068104203D0002901D0012000E00020A1
:1007B000C0B210BC7047002289B2090AC9B2C9434D
:1007C0000160704780B53C48016851F470010160D8
:1007D0003A49086850F0010008600020384A10606B
:1007E0000A68384802400A603748384A106008688A
:1007F00030F48020086000203549086000F005F8DA
:100800005FF000603349086001BD82B000200190B4
:10081000002000902949086850F48030086008687A
:1008200010F4003000900198401C019000980028BE
:1008300003D10198B0F5A04FF1D10868800302D52B
:100840000120009001E000200090009801282FD1A5
:100850002148026852F0805202602048026852F437
:1008600040420260164802680260026852F4004288
:100870000260026852F4A0520260194A134B1A60D7
:100880000A6852F080720A600A689201FCD540F250
:100890000571144A116001688908890001600168C6
:1008A00051F002010160016811F00C010829FAD130
:1008B00002B070470000000088ED00E00038024000
:1008C00008380240FFFFF6FE1030002404380240D2
:1008D0000C38024008ED00E0403802400070004053
:1008E00019544007003C024030B501688468421842
:1008F000416802EB5103C90703D54C4401E0491C90
:1009000008D19A4218BF12F9011B01D10C3030BD39
:1009100012F8015B002904F8015BF0D4491EF7D5F9
:10092000EFE77047FEE7FEE7FEE7FEE77047704738
:100930007047704710B5074979441831064C7C441C
:10094000163404E00A68081D114488470146A14294
:10095000F8D110BD2C000000380000004EF6885180
:10096000CEF20001086840F470000860BFF34F8FBA
:10097000BFF36F8F4FF00170E1EE100A7047000077
:1009800069FFFFFFC40100001A0000000000002002
:1009900000F00DF8002801D0FFF7CCFFAFF3008086
:1009A0000020AFF30080FFF71AFD00F002F80120ED
:1009B000704700F001B800000746384600F002F822
:1009C000FBE7000080B5AFF30080024A1100182059
:1009D000ABBEFBE7260002000548014603B46846AB
:1009E00080F30988AFF30080FFF7B8FFFFF7D0FF6F
:1009F000A5EDF5FE0148804701480047C5070008FE
:100A0000D9090008FFF7FEBFFFF7FEBFFFF7FEBFE3
:100A1000FFF7FEBFFFF7FEBFFFF7FEBFFFF7FEBF0A
:100A2000FFF7FEBFFFF7FEBFFFF7FEBFFFF7FEBFFA
:100A3000FFF7FEBFFFF7FEBFFFF7FEBFFFF7FEBFEA
:100A4000FFF7FEBFFFF7FEBFFFF7FEBFFFF7FEBFDA
:100A5000FFF7FEBFFFF7FEBFFFF7FEBFFFF7FEBFCA
:100A6000FFF7FEBFFFF7FEBFFFF7FEBFFFF7FEBFBA
:100A7000FFF7FEBFFFF7FEBFFFF7FEBFFFF7FEBFAA
:100A8000FFF7FEBFFFF7FEBFFFF7FEBFFFF7FEBF9A
:100A9000FFF7FEBFFFF7FEBFFFF7FEBFFFF7FEBF8A
:100AA000FFF7FEBFFFF7FEBFFFF7FEBFFFF7FEBF7A
:100AB000FFF7FEBFFFF7FEBFFFF7FEBFFFF7FEBF6A
:100AC000FFF7FEBFFFF7FEBFFFF7FEBFFFF7FEBF5A
:100AD000FFF7FEBFFFF7FEBFFFF7FEBFFFF7FEBF4A
:100AE000FFF7FEBFFFF7FEBFFFF7FEBFFFF7FEBF3A
:100AF000FFF7FEBFFFF7FEBFFFF7FEBFFFF7FEBF2A
:100B0000FFF7FEBFFFF7FEBFFFF7FEBFFFF7FEBF19
:100B1000FFF7FEBFFFF7FEBFFFF7FEBFFFF7FEBF09
:100B2000FFF7FEBFFFF7FEBFFFF7FEBFFFF7FEBFF9
:100B3000FFF7FEBFFFF7FEBFFFF7FEBFFFF7FEBFE9
:100B4000FFF7FEBFFFF7FEBF09C0F9A4B09992827C
:050B5000D88090E900CF
:04000005080009D90D
:00000001FF
