:020000040800F2
:10000000402000201D130008FF0A0008010B000813
:10001000030B0008050B0008070B00080000000098
:10002000000000000000000000000000090B0008B4
:100030000B0B0008000000000D0B00080F0B000860
:100040002D13000831130008351300083913000878
:100050003D13000841130008451300084913000828
:100060004D130008511300085513000859130008D8
:100070005D13000861130008651300086913000888
:100080006D130008711300081D080008751300089F
:10009000791300087D1300088113000885130008F8
:1000A000891300088D1300089113000895130008A8
:1000B00015030008B1050008991300089D130008F6
:1000C000A1130008A5130008A9130008AD13000828
:1000D000B1130008B5130008B9130008BD130008D8
:1000E000EB030008C1130008C5130008C91300087A
:1000F000CD130008D1130008D5130008D913000848
:10010000DD130008E113000885060008E513000868
:10011000E9130008ED130008F1130008F5130008B7
:10012000F9130008FD130008011400080514000865
:10013000091400080D140008111400081514000813
:10014000191400081D1400082114000825140008C3
:10015000291400082D140008311400083514000873
:10016000391400083D140008411400084514000823
:10017000491400084D1400085114000855140008D3
:10018000591400085D14000801B402E00098401EF4
:10019000009000980028F9D101B070472DE9F8438C
:1001A00004000D001600DFF8E4764FF4004138003B
:1001B00000F0D6FBDFF8D886DFF8D89619F80610DD
:1001C00089B2404600F0CCFB4FF47A70FFF7DCFFB9
:1001D0004FF48041380000F0C3FB19F8051089B2D4
:1001E000404600F0BDFB4FF47A70FFF7CDFF4FF4AF
:1001F0000051380000F0B4FB19F8041089B24046F1
:1002000000F0AEFB4FF47A70FFF7BEFFBDE8F1835C
:1002100038B50400DFF880568021280000F062FC29
:100220000028F7D0E4B2210089B2280000F052FC87
:1002300031BD10B5DFF860462021200000F052FCEF
:100240000028F7D0200000F049FCC0B210BDE0B596
:100250000121042000F0BCFC01208DF804007F2067
:10026000009000208DF8060000208DF807006946F8
:10027000DFF81C0600F02CFB0121012000F0A8FC97
:1002800001208DF804004FF46040009000208DF8AC
:10029000060000208DF807006946DFF8F00500F041
:1002A00017FB07BD1FB504000121012000F09EFCD3
:1002B00043F67F60ADF80400641E02940020ADF8A0
:1002C000060001A95FF0804000F0BCFC01215FF056
:1002D000804000F0EDFD012201215FF0804000F040
:1002E000C9FD01215FF0804000F0E3FC4FF4C060E5
:1002F00000F0E2FD1C208DF8000000208DF80100C8
:1003000001208DF8020001208DF80300684600F0FE
:10031000D8FD1FBD70B501215FF0804000F0B6FD33
:10032000002820D0DFF8740502780A2301780A2417
:1003300091FBF4F10A240078642590FBF5F00A257E
:1003400092FBF3F603FB162291FBF4F304FB13116B
:1003500090FBF5F305FB1300FFF720FF01215FF091
:10036000804000F0A5FD70BDE0B50121042000F043
:100370002FFC00208DF804004FF400500090002066
:100380008DF807006946DFF8080500F0A1FA07BDFF
:10039000E0B501214FF4804000F036FC0D21022031
:1003A00000F0CAFD4FF40050019000208DF80800C5
:1003B0000C208DF8090001208DF80A0001A800F03A
:1003C000E3FD4FF4C06000F077FD28208DF80000B9
:1003D00000208DF8010001208DF8020001208DF829
:1003E0000300684600F06DFD07BD80B54FF4005076
:1003F00000F006FE002841D0DFF8A404016846F2B0
:100400000142914201DB0A210160DFF890140A7871
:100410003D2A0EDA0022DFF88C341A600268DFF819
:1004200088341A600022DFF884341A6002685200AF
:1004300002600A783D3A0A2A0ED20022DFF86434BC
:100440001A600022DFF860341A600268DFF85C345A
:100450001A60026852000260097847290EDB0168C1
:10046000DFF8402411600021DFF83C2411600021F6
:10047000DFF8382411600168490001604FF4005032
:1004800000F0C8FD01BD1FB50121042000F0AEFB46
:1004900040F61430ADF80000BC2001901020ADF8FB
:1004A00002000020ADF80800DFF80444694620008F
:1004B00000F0C8FB0121200000F0FBFB1FBD18B5B8
:1004C00085B06020ADF800000120ADF802000020EA
:1004D000ADF80C0000200290DFF8D44369462000FC
:1004E00000F0F5FB6946200000F02FFC6946200073
:1004F00000F06FFC06B010BD1CB50121022000F019
:1005000067FB02208DF804004FF4E070009000209B
:100510008DF8060000208DF80700DFF89843694643
:10052000200000F0D5F902220621200000F01BFA7D
:1005300002220721200000F016FA022208212000E2
:1005400000F011FA13BD1FB504000121022000F0D4
:100550004DFB46F6FF00ADF80400641E0294002037
:10056000ADF80600D44C01A9200000F06BFB01217E
:10057000200000F09DFC01220121200000F07AFC07
:100580000121200000F095FB4FF4C06000F094FCC6
:100590001D208DF8000000208DF8010001208DF84D
:1005A000020001208DF80300684600F08AFC1FBDA0
:1005B00010B5C14C0121200000F068FC00282BD0B0
:1005C000B648017851290ADA0020B6490860B448D3
:1005D0000068B54908600020B449086018E0007858
:1005E000513807280AD20020AE4908600020AE49E1
:1005F0000860AB480068AD49086009E0A848006899
:10060000A84908600020A84908600020A7490860A0
:100610000121200000F04CFC10BD1FB50400012199
:10062000082000F0E3FA43F67F60ADF80400641E92
:1006300002940020ADF80600A04C01A9200000F0B3
:1006400001FB0121200000F033FC012201212000E8
:1006500000F010FC0121200000F02BFB4FF4C060E3
:1006600000F02AFC32208DF8000000208DF80100F7
:1006700001208DF8020001208DF80300684600F08B
:1006800020FC1FBDF8B58D4C0121200000F0FEFBC1
:10069000002827D08A4D8B4E8B48018889B2090AE1
:1006A0002A88B1542988491C2980008829887054D7
:1006B0002888401C2880288814280FD1A520FFF7FF
:1006C000A7FD002703E0F05DFFF7A2FD7F1C142FBC
:1006D000F9DB5A20FFF79CFD002028800121200033
:1006E00000F0E6FBF1BD10B586B00121012000F05D
:1006F0006FFA02208DF8040000208DF8060001201A
:100700008DF807000C200090604C6946200000F036
:10071000DFF807220221200000F025F9072203213B
:10072000200000F020F901215FF4003000F05EFAB3
:100730005FF4E13002900020ADF80C000020ADF82D
:100740000E000020ADF810000C20ADF81200524C45
:1007500002A9200000F04CF90121200000F0ACF9C2
:1007600006B010BD18B58DB00121022000F030FA9E
:100770000220019003208DF8080000208DF80B0066
:1007800001A94C4800F0A4F84FF4C06000F094FBBD
:1007900012208DF8000001208DF8010002208DF854
:1007A000020001208DF80300684600F08AFB012159
:1007B0004FF4807000F028FA0020099000200B9080
:1007C0005FF440300A9009A800F057FC0020039025
:1007D00000208DF8100001208DF8110000200590F8
:1007E000002006900020079001208DF82000374C53
:1007F00003A9200000F01CFC002301220921200095
:1008000000F057FC012240F20521200000F0C6FC58
:100810000121200000F040FC0EB010BD38B52B4C7B
:1008200040F205252900200000F0C9FC002808D06E
:100830002900200000F0DBFC200000F0A4FC22498D
:10084000088031BD80B5FFF78FFDFFF700FDFFF792
:1008500053FE0220FFF726FDFFF715FEFFF72FFEE0
:100860004FF47A70FFF76FFE0A20FFF7D6FEFFF70E
:100870003AFFFFF777FF154800F080FCFFF788FD8F
:10088000FFF7D7FC05490870FAE7000000000240B6
:10089000000802400400002000440040380000200E
:1008A0000000002034080040380800403C080040A8
:1008B000000800400004024000040040000C00401A
:1008C00036000020200000203400002000200140DD
:1008D000F0B400220022002200233DE0012414FA9B
:1008E00003F20D681540954235D1032502685E007C
:1008F00015FA06F6B243026006680F795A0097406F
:100900003E4306600A79012A02D00A79022A16D1EA
:1009100082685E0015FA06F6B243826086684F79F7
:100920005A0097403E43866042689C4032EA040485
:10093000446042688C799C40A4B222434260C468FF
:100940005A00954034EA0505C560C468CD795A005F
:1009500095402C43C4605B1C102BBFD3F0BC704788
:1009600089B24161704770B400230023D2B28B007A
:1009700013F01C039A400B009BB2DB1000EB8303C7
:100980000C00A4B2E41000EB8404246A0F258E004E
:1009900016F01C06B540AC431C620B009BB2DB108A
:1009A00000EB83031B6A1A4389B2C91000EB810074
:1009B000026270BC704730B50168846842184168B3
:1009C00002EB5103C90703D54C4401E0491C08D18F
:1009D0009A4218BF12F9011B01D10C3030BD12F838
:1009E000015B002904F8015BF0D4491EF7D5EFE75D
:1009F00038B584B005000C00002000200020002045
:100A0000A0890028298A31F44051E08801432982D5
:100A1000A98928480140A0880143208901436089B1
:100A20000143A981A98A31F44071A0890143A982B7
:100A3000684600F06DF81D48854202D01C4885428A
:100A400001D1039900E00299A889000406D5192074
:100A5000414320684000B1FBF0F205E0192041431A
:100A600020688000B1FBF0F26420B2FBF0F10901D4
:100A70000B001B097FF0630000FB0322A889000420
:100A800008D5D20032326420B2FBF0F010F007003B
:100A9000014307E0120132326420B2FBF0F010F0A3
:100AA0000F000143298105B030BD00000010014056
:100AB00000140140F3E9FFFFC9B2002904D0818985
:100AC00051F40051818104E082894DF6FF710A40A2
:100AD00082817047C905C90D818070478088C00533
:100AE000C00D704700220A0092B2B2F5007F008864
:100AF000084201D0012000E00020C0B270477047DA
:100B0000FEE7FEE7FEE7FEE7704770477047704775
:100B100010B4002100210021022100210221DFF870
:100B20000421116811F00C01002904D0042906D019
:100B3000082908D02DE0DFF8F41001602CE0DFF880
:100B4000F010016028E0DFF8E0402168C1F3805137
:100B5000236813F03F03002909D0DFF8D410B1FB5C
:100B6000F3F32168C1F3881101FB03F108E0DFF81A
:100B7000BC10B1FBF3F32168C1F3881101FB03F151
:100B80002368C3F301435B1C5B00B1FBF3F101601D
:100B900002E0DFF898100160116811F0F001090916
:100BA000DFF89030595C0468CC404460116811F45F
:100BB000E051890A595C4468CC408460116811F4A2
:100BC0006041490B595C4268CA40C26010BC704722
:100BD000C9B2002904D018490A681043086004E02B
:100BE00015490A6832EA000008607047C9B2002956
:100BF00004D012490A681043086004E00F490A68EB
:100C000032EA000008607047C9B2002904D00C49DC
:100C10000A681043086004E009490A6832EA0000E3
:100C20000860704708380240043802400024F4008D
:100C300040787D01100000203038024040380240EA
:100C40004438024010B400220488834B98420ED0EE
:100C5000874A90420BD0B0F1804F08D07F4A904233
:100C600005D07F4A904202D07E4A904205D14FF68D
:100C70008F72144022004C8814437B4A904208D063
:100C80007A4A904205D04FF6FF42144022000C8968
:100C9000144304804A68C2620A880285984202D0DE
:100CA000734A904201D1897A01860121818210BC68
:100CB0007047C9B2002904D0018851F001010180B8
:100CC00004E002884FF6FE710A400280704730B49B
:100CD000002200220022038C4FF6FE721340038490
:100CE000038C8488058B4FF68F7215404FF6FC728B
:100CF00015400A8815434FF6FD7213408A89134345
:100D00004A881343544A904202D0594A904215D11E
:100D10004FF6F7721340CA8913434FF6FB72134024
:100D20001A008B8813434FF6FF6214404FF6FF52B0
:100D300014400A8A144322004C8A14438480058399
:100D400089684163038430BC704730B400220022BC
:100D50000022038C4FF6EF7213400384058C8388C6
:100D6000048B48F6FF7214404FF6FF4214400A8885
:100D700054EA02244FF6DF7215408A8955EA0215BB
:100D80004A8855EA0215344A904202D0384A9042C5
:100D900018D14FF67F721540CA8955EA02152A000C
:100DA0004FF6BF7515408A8855EA02154FF6FF3297
:100DB00013404FF2FF7213400A8A53EA82034A8AB1
:100DC00053EA82038380048389688163058430BC8D
:100DD000704730B4002200220022038C4FF6FF62DD
:100DE00013400384058C8388848B4FF68F721440E4
:100DF0004FF6FC7214400A8814434FF6FF52154018
:100E00008A8955EA02254A8855EA0225124A904203
:100E100002D0174A904218D14FF2FF721540CA898A
:100E200055EA02252A004FF6FF3515408A8855EA13
:100E300002254EF6FF7213404DF6FF7213400A8AE8
:100E400053EA02134A8A53EA02138380848389682F
:100E5000C163058430BC70470000014000040040BD
:100E600000080040000C004000100040001400404A
:100E700000040140D2B2002A03D08289114381814B
:100E800003E0828932EA0101818170470022002259
:100E90000022028A0A408089014092B2002A04D0CE
:100EA00089B2002901D0012000E00020C0B27047C3
:100EB00089B2C943018270471A4908431A49086038
:100EC0007047002100210F23C17800291ED0164948
:100ED000096811F4E061D1F5E061090AD1F1040279
:100EE000DBB20B41417891408278134019430901EC
:100EF0000E4A0378D1540121027812F01F0291406A
:100F00000B4A0078401142F8201009E001210278D4
:100F100012F01F029140074A0078401142F8201059
:100F2000704700000000FA050CED00E000E400E06E
:100F300000E100E080E100E010B400220F228B000D
:100F400013F00C039A400F4B0C00E4B234F003048E
:100F50001C5934EA02020C00E4B234F003041A51C2
:100F60000A00D2B232F003029A58C0B28C0014F0D8
:100F70000C04A0401043C9B231F00301585010BC1A
:100F8000704700000838014030B40021234A1300A4
:100F9000817900292CD0214C256801688D4325607A
:100FA0001F4C256801688D43256001795B181C681A
:100FB00001680C431C601B4B1C6801688C431C605F
:100FC000194C256801688D4325604179102908D1A5
:100FD0001A6801680A431A602168006801432160A9
:100FE0000CE0417951180A68006802430A6005E084
:100FF000017959180A68006882430A6030BC70475A
:1010000000210A490968014201D0012000E00020C6
:10101000C0B270470549086070470000003C0140BD
:10102000043C0140083C01400C3C0140143C0140A0
:1010300010B4002200234468544A14400A7954EA48
:1010400002240A68144344608468514A14400A69BF
:101050001443CA6814438A6814434A7954EA420420
:101060008460C26A32F47002097D491E0B43DBB210
:1010700052EA0352C26210BC70470021454B1A6805
:1010800045490A4001680A4341680A4381680A43A6
:10109000C06802431A607047C9B2002904D0816851
:1010A00051F00101816003E08168490849008160D5
:1010B0007047F0B4002400240C00E4B20A2C12DBC8
:1010C000C5680726B1F10A04032714FB07F4A640FC
:1010D000B543DBB2B1F10A04032614FB06F4A340C6
:1010E0002B43C3600DE005690726032411FB04F4BC
:1010F000A640B543DBB2032411FB04F4A3402B4309
:1011000003611300DBB2072B10DA446B1F25531E5B
:10111000052613FB06F39D40AC43C9B2521E0523BE
:1011200012FB03F291402143416325E01300DBB23F
:101130000D2B10DA046B1F25D31F052613FB06F3B6
:101140009D40AC43C9B2D21F052312FB03F291406C
:101150002143016310E0C46A1F25B2F10D03052687
:1011600013FB06F39D40AC43C9B20D3A052312FBB5
:1011700003F291402143C162F0BC7047816851F095
:10118000804181607047C06C80B27047FFFEFFFCF9
:10119000FDF7FFC004230140E030FCFF0023C9B28B
:1011A000012313FA01F1D2B2002A03D0426811439D
:1011B000416003E0426832EA01014160704710B4C7
:1011C0000022002200220A0092B2120A92B2436860
:1011D000012414FA01F119400068104203D00029DB
:1011E00001D0012000E00020C0B210BC70470022F6
:1011F00089B2090AC9B2C943016070470F48016842
:1012000051F4700101600E49086850F00100086057
:1012100000200C4A10600A680B4802400A600B4824
:101220000B4A1060086830F48020086000200949EB
:1012300008605FF0006008490860704788ED00E0D2
:101240000038024008380240FFFFF6FE103000244C
:10125000043802400C38024008ED00E010B50749A0
:1012600079441831064C7C44163404E00A68081DA1
:10127000114488470146A142F8D110BD2C0000005E
:10128000380000004EF68851CEF20001086840F4A4
:1012900070000860BFF34F8FBFF36F8F4FF0017086
:1012A000E1EE100A704700000FF7FFFFB4010000E5
:1012B000400000000000002000F00DF8002801D0E0
:1012C000FFF7CCFFAFF300800020AFF30080FFF703
:1012D000B9FA00F002F80120704700F001B80000F0
:1012E0000746384600F002F8FBE7000080B5AFF390
:1012F0000080024A11001820ABBEFBE72600020066
:101300000548014603B4684680F30988AFF30080BE
:10131000FFF7B8FFFFF7D0FFA5EDF5FE01488047C6
:1013200001480047FD11000801130008FFF7FEBF48
:10133000FFF7FEBFFFF7FEBFFFF7FEBFFFF7FEBFE1
:10134000FFF7FEBFFFF7FEBFFFF7FEBFFFF7FEBFD1
:10135000FFF7FEBFFFF7FEBFFFF7FEBFFFF7FEBFC1
:10136000FFF7FEBFFFF7FEBFFFF7FEBFFFF7FEBFB1
:10137000FFF7FEBFFFF7FEBFFFF7FEBFFFF7FEBFA1
:10138000FFF7FEBFFFF7FEBFFFF7FEBFFFF7FEBF91
:10139000FFF7FEBFFFF7FEBFFFF7FEBFFFF7FEBF81
:1013A000FFF7FEBFFFF7FEBFFFF7FEBFFFF7FEBF71
:1013B000FFF7FEBFFFF7FEBFFFF7FEBFFFF7FEBF61
:1013C000FFF7FEBFFFF7FEBFFFF7FEBFFFF7FEBF51
:1013D000FFF7FEBFFFF7FEBFFFF7FEBFFFF7FEBF41
:1013E000FFF7FEBFFFF7FEBFFFF7FEBFFFF7FEBF31
:1013F000FFF7FEBFFFF7FEBFFFF7FEBFFFF7FEBF21
:10140000FFF7FEBFFFF7FEBFFFF7FEBFFFF7FEBF10
:10141000FFF7FEBFFFF7FEBFFFF7FEBFFFF7FEBF00
:10142000FFF7FEBFFFF7FEBFFFF7FEBFFFF7FEBFF0
:10143000FFF7FEBFFFF7FEBFFFF7FEBFFFF7FEBFE0
:10144000FFF7FEBFFFF7FEBFFFF7FEBFFFF7FEBFD0
:10145000FFF7FEBFFFF7FEBFFFF7FEBFFFF7FEBFC0
:10146000000AFD0009C0F9A4B0999282D88090FAD0
:10147000000B010203040102030406070809E70048
:0400000508001301DB
:00000001FF
