:020000040800F2
:1000000010200020750A00089F090008A1090008B7
:10001000A3090008A5090008A709000800000000BE
:10002000000000000000000000000000A909000816
:10003000AB09000800000000AD090008AF09000886
:10004000950A0008990A00089D0A0008A10A0008FC
:10005000A50A0008A90A0008AD0A0008B10A0008AC
:10006000B50A0008B90A0008BD0A0008C10A00085C
:10007000C50A0008C90A0008CD0A0008D10A00080C
:10008000D50A0008D90A0008DD0A0008E10A0008BC
:10009000E50A0008E90A0008ED0A0008F10A00086C
:1000A000F50A0008F90A0008FD0A0008010B00081B
:1000B000B10300084D040008050B0008090B0008F7
:1000C0000D0B0008110B0008150B0008190B000898
:1000D0001D0B0008210B0008250B0008290B000848
:1000E000230300082D0B0008310B0008350B000816
:1000F000390B00083D0B0008410B0008450B0008B8
:10010000490B00084D0B0008510B0008550B000867
:10011000590B00085D0B0008610B0008650B000817
:10012000690B00086D0B0008710B0008750B0008C7
:10013000790B00087D0B0008810B0008850B000877
:10014000890B00088D0B0008910B0008950B000827
:10015000990B00089D0B0008A10B0008A50B0008D7
:10016000A90B0008AD0B0008B10B0008B50B000887
:10017000B90B0008BD0B0008C10B0008C50B000837
:10018000C90B0008CD0B000801B402E00098401E26
:10019000009000980028F9D101B07047E0B5012126
:1001A000042000F0A3F900208DF804004FF4005063
:1001B000009000208DF807006946C64800F0C6F997
:1001C00007BDE0B50121012000F090F901208DF874
:1001D00004002020009000208DF8060000208DF8FB
:1001E00007006946BC4800F0B1F907BDE0B5012140
:1001F000042000F07BF901208DF80400FF2000901E
:1002000000208DF8060000208DF807006946B148EF
:1002100000F09CF90121022000F068F901208DF81E
:1002200004000F20009000208DF8060000208DF8BB
:1002300007006946A94800F089F907BD2DE9F04794
:1002400004000D0016001F00DFF8908208214046D0
:1002500000F0C4F9DFF87C92DFF884A21AF80710E6
:1002600089B2484600F0BAF94FF47A70FFF78CFF74
:100270000421404600F0B2F91AF8061089B2484647
:1002800000F0ACF94FF47A70FFF77EFF0221404690
:1002900000F0A4F91AF8051089B2484600F09EF95A
:1002A0004FF47A70FFF770FF0121404600F096F995
:1002B0001AF8041089B2484600F090F94FF47A70A9
:1002C000FFF762FFBDE8F087E0B501214FF4804001
:1002D00000F028F90D21022000F088F94FF40050B9
:1002E000019000208DF808000C208DF809000120F5
:1002F0008DF80A0001A800F0A1F94FF4C06000F0E9
:10030000F1F928208DF8000000208DF8010001206F
:100310008DF8020001208DF80300684600F0E7F92F
:1003200007BD80B54FF4005000F0C4F9002806D096
:1003300000206C4908604FF4005000F0C5F901BD81
:100340001FB504000121012000F0DEF846F6FF0091
:10035000ADF80400641E02940020ADF8060001A967
:100360005FF0804000F0FEF901215FF0804000F076
:100370006BFA012201215FF0804000F047FA012171
:100380005FF0804000F025FA4FF4C06000F0AAF959
:100390001C208DF8000000208DF8010001208DF850
:1003A000020001208DF80300684600F0A0F91FBD8F
:1003B00080B501215FF0804000F034FA00280FD0B2
:1003C00048480168491C0160016842F2107291427C
:1003D00001DB0021016001215FF0804000F034FA70
:1003E00001BD1FB504000121022000F08DF846F682
:1003F000FF00ADF80400641E02940020ADF8060072
:10040000394C01A9200000F0ADF90121200000F0D5
:100410001BFA01220121200000F0F8F9012120003F
:1004200000F0D7F94FF4C06000F05CF91D208DF8A2
:10043000000000208DF8010001208DF8020001204D
:100440008DF80300684600F052F91FBD10B5264C28
:100450000121200000F0E6F9002807D020211E48E5
:1004600000F0BFF80121200000F0EEF910BDF8B552
:10047000FFF7A7FEFFF7BAFEFFF790FE4FF4FA7002
:10048000FFF7AFFF4FF47A70FFF75AFFFFF71CFF3B
:100490000A23144801680A2291FBF2F20A24016837
:1004A000642591FBF5F10A250668076897FBF3F7C9
:1004B00003FB176392FBF4F604FB162291FBF5F4A1
:1004C00005FB141100684FF47A7490FBF4F0FFF709
:1004D000B5FEDDE7000802400000024000040240D3
:1004E000000000200C00002000040040C9B20029D8
:1004F00004D013490A681043086004E010490A68F0
:1005000032EA000008607047C9B2002904D00D49E2
:100510000A681043086004E00A490A6832EA0000E9
:1005200008607047C9B2002904D007490A6810431F
:10053000086004E004490A6832EA00000860704775
:10054000303802404038024044380240F0B40022C3
:100550000022002200233DE0012414FA03F20D687A
:100560001540954235D1032502685E0015FA06F65E
:10057000B243026006680F795A0097403E43066016
:100580000A79012A02D00A79022A16D182685E000D
:1005900015FA06F6B243826086684F795A00974092
:1005A0003E43866042689C4032EA040444604268EC
:1005B0008C799C40A4B222434260C4685A009540A2
:1005C00034EA0505C560C468CD795A0095402C43CE
:1005D000C4605B1C102BBFD3F0BC704789B2416173
:1005E0007047426989B251404161704710B400229E
:1005F0000F228B0013F00C039A400F4B0C00E4B257
:1006000034F003041C5934EA02020C00E4B234F062
:1006100003041A510A00D2B232F003029A58C0B24F
:100620008C0014F00C04A0401043C9B231F0030157
:10063000585010BC704700000838014030B4002109
:10064000234A1300817900292CD0214C25680168A8
:100650008D4325601F4C256801688D432560017915
:100660005B181C6801680C431C601B4B1C6801680C
:100670008C431C60194C256801688D4325604179C5
:10068000102908D11A6801680A431A6021680068B5
:10069000014321600CE0417951180A680068024367
:1006A0000A6005E0017959180A68006882430A6007
:1006B00030BC704700210A490968014201D001207D
:1006C00000E00020C0B27047054908607047000094
:1006D000003C0140043C0140083C01400C3C01400E
:1006E000143C01401A4908431A4908607047002128
:1006F00000210F23C17800291ED01649096811F482
:10070000E061D1F5E061090AD1F10402DBB20B41ED
:100710004178914082781340194309010E4A0378C9
:10072000D1540121027812F01F0291400B4A007847
:10073000401142F8201009E00121027812F01F0256
:100740009140074A0078401142F82010704700009D
:100750000000FA050CED00E000E400E000E100E03C
:1007600080E100E010B400220488214B98420ED0B2
:10077000254A90420BD0B0F1804F08D01D4A9042DC
:1007800005D01D4A904202D01C4A904205D14FF636
:100790008F72144022004C881443194A904208D0AA
:1007A000184A904205D04FF6FF42144022000C89AF
:1007B000144304804A68C2620A880285984202D0C3
:1007C000114A904201D1897A01860121818210BCAF
:1007D0007047C9B2002904D0018851F0010101809D
:1007E00004E002884FF6FE710A4002807047000064
:1007F000000001400004004000080040000C0040E0
:10080000001000400014004000040140D2B2002A51
:1008100003D082891143818103E0828932EA010198
:1008200081817047002200220022028A0A408089CA
:10083000014092B2002A04D089B2002901D00120DF
:1008400000E00020C0B2704789B2C94301827047FE
:1008500080B53C48016851F4700101603A4908686C
:1008600050F0010008600020384A10600A683848DB
:1008700002400A603748384A1060086830F4802027
:10088000086000203549086000F005F85FF000605E
:100890003349086001BD82B0002001900020009023
:1008A0002949086850F480300860086810F4003066
:1008B00000900198401C01900098002803D10198F5
:1008C000B0F5A04FF1D10868800302D50120009057
:1008D00001E000200090009801282FD121480268F3
:1008E00052F0805202602048026852F44042026096
:1008F000164802680260026852F400420260026810
:1009000052F4A0520260194A134B1A600A6852F05E
:1009100080720A600A689201FCD540F20571144A9F
:1009200011600168890889000160016851F00201C5
:100930000160016811F00C010829FAD102B070477A
:100940000000000088ED00E0003802400838024056
:10095000FFFFF6FE10300024043802400C3802403D
:1009600008ED00E040380240007000401954400794
:10097000003C02400EE002684368024408305FEA2F
:10098000C37C44BF4B445B1E52F804CB43F804CBFA
:10099000091FF9D150F8041B0029ECD170477047AA
:1009A000FEE7FEE7FEE7FEE77047704770477047D7
:1009B00010B5074979441831064C7C44163404E0DC
:1009C0000A68081D114488470146A142F8D110BDAC
:1009D0002C0000003C0000004EF68851CEF20001D1
:1009E000086840F470000860BFF34F8FBFF36F8F4B
:1009F0004FF00170E1EE100A7047000079FFFFFF31
:100A00001000000080000000000000200000000036
:100A100000F00DF8002801D0FFF7CAFFAFF3008007
:100A20000020AFF30080FFF722FD00F002F8012064
:100A3000704700F001B800000746384600F002F8A1
:100A4000FBE7000080B5AFF30080024A11001820D8
:100A5000ABBEFBE7260002000548014603B468462A
:100A600080F30988AFF30080FFF7B6FFFFF7D0FFF0
:100A7000A5EDF5FE014880470148004751080008F0
:100A8000590A0008C0F9A4B0999282D88090000059
:100A900000000000FFF7FEBFFFF7FEBFFFF7FEBF3D
:100AA000FFF7FEBFFFF7FEBFFFF7FEBFFFF7FEBF7A
:100AB000FFF7FEBFFFF7FEBFFFF7FEBFFFF7FEBF6A
:100AC000FFF7FEBFFFF7FEBFFFF7FEBFFFF7FEBF5A
:100AD000FFF7FEBFFFF7FEBFFFF7FEBFFFF7FEBF4A
:100AE000FFF7FEBFFFF7FEBFFFF7FEBFFFF7FEBF3A
:100AF000FFF7FEBFFFF7FEBFFFF7FEBFFFF7FEBF2A
:100B0000FFF7FEBFFFF7FEBFFFF7FEBFFFF7FEBF19
:100B1000FFF7FEBFFFF7FEBFFFF7FEBFFFF7FEBF09
:100B2000FFF7FEBFFFF7FEBFFFF7FEBFFFF7FEBFF9
:100B3000FFF7FEBFFFF7FEBFFFF7FEBFFFF7FEBFE9
:100B4000FFF7FEBFFFF7FEBFFFF7FEBFFFF7FEBFD9
:100B5000FFF7FEBFFFF7FEBFFFF7FEBFFFF7FEBFC9
:100B6000FFF7FEBFFFF7FEBFFFF7FEBFFFF7FEBFB9
:100B7000FFF7FEBFFFF7FEBFFFF7FEBFFFF7FEBFA9
:100B8000FFF7FEBFFFF7FEBFFFF7FEBFFFF7FEBF99
:100B9000FFF7FEBFFFF7FEBFFFF7FEBFFFF7FEBF89
:100BA000FFF7FEBFFFF7FEBFFFF7FEBFFFF7FEBF79
:100BB000FFF7FEBFFFF7FEBFFFF7FEBFFFF7FEBF69
:100BC000FFF7FEBFFFF7FEBFFFF7FEBFFFF7FEBF59
:0400000508000A598C
:00000001FF
