:020000040800F2
:1000000010200020ED07000875070008770700089A
:10001000790700087B0700087D0700080000000042
:100020000000000000000000000000007F07000842
:10003000810700080000000083070008850700080A
:100040000D08000811080008150800081908000824
:100050001D080008210800082508000829080008D4
:100060002D08000831080008350800083908000884
:100070003D08000841080008450800084908000834
:100080004D080008510800085508000859080008E4
:100090005D08000861080008650800086908000894
:1000A0006D08000871080008750800087908000844
:1000B0007D080008810800088508000889080008F4
:1000C0008D080008910800089508000899080008A4
:1000D0009D080008A1080008A5080008A908000854
:1000E000F5020008AD080008B1080008B5080008CE
:1000F000B9080008BD080008C1080008C5080008C4
:10010000C9080008CD080008D1080008D508000873
:10011000D9080008DD080008E1080008E508000823
:10012000E9080008ED080008F1080008F5080008D3
:10013000F9080008FD080008010900080509000881
:10014000090900080D09000811090008150900082F
:10015000190900081D0900082109000825090008DF
:10016000290900082D09000831090008350900088F
:10017000390900083D09000841090008450900083F
:10018000490900084D09000801B402E00098401E2A
:10019000009000980028F9D101B07047E0B5012126
:1001A000042000F0E9F800208DF804004FF400501E
:1001B000009000208DF8070069466B4800F0FCF8BD
:1001C00007BDE0B50121042000F0D6F801208DF82C
:1001D0000400FF20009000208DF8060000208DF81C
:1001E00007006946604800F0E7F80121022000F0AE
:1001F000C3F801208DF804000F20009000208DF836
:10020000060000208DF807006946584800F0D4F831
:1002100007BD2DE9F04704000D0016001F00DFF8B0
:100220004C810821404600F00FF9DFF83C91DFF8DF
:1002300040A11AF8071089B2484600F005F942F2C9
:1002400010773800FFF7A0FF0421404600F0FCF8CB
:100250001AF8061089B2484600F0F6F83800FFF7A1
:1002600093FF0221404600F0EFF81AF8051089B21A
:10027000484600F0E9F83800FFF786FF01214046C4
:1002800000F0E2F81AF8041089B2484600F0DCF8F1
:100290003800FFF779FFBDE8F087E0B501214FF4A2
:1002A000804000F077F80D21022000F0E5F84FF4CF
:1002B0000050019000208DF808000C208DF80900F6
:1002C00001208DF80A0001A800F0FEF84FF4C0608C
:1002D00000F04EF928208DF8000000208DF8010074
:1002E00001208DF8020001208DF80300684600F01F
:1002F00044F907BD80B54FF4005000F021F9002803
:1003000003D01C480168491C01604FF4005000F004
:1003100021F901BDF8B5FFF754FFFFF73FFFFFF7E5
:10032000BCFF0A23134801680A2291FBF2F20A2457
:100330000168642591FBF5F10A250668076897FBBB
:10034000F3F703FB176392FBF4F604FB162291FB11
:10035000F5F405FB141100684FF47A7490FBF4F087
:10036000FFF757FFDDE700000008024000040240ED
:10037000000000200C000020C9B2002904D00C4964
:100380000A681043086004E009490A6832EA00007C
:1003900008607047C9B2002904D006490A681043B2
:1003A000086004E003490A6832EA00000860704708
:1003B0003038024044380240F0B4002200220022CB
:1003C00000233DE0012414FA03F20D681540954224
:1003D00035D1032502685E0015FA06F6B2430260C5
:1003E00006680F795A0097403E4306600A79012A51
:1003F00002D00A79022A16D182685E0015FA06F642
:10040000B243826086684F795A0097403E438660C7
:1004100042689C4032EA0404446042688C799C4003
:10042000A4B222434260C4685A00954034EA0505EC
:10043000C560C468CD795A0095402C43C4605B1CEC
:10044000102BBFD3F0BC704789B2416170470EE0FA
:1004500002684368024408305FEAC37C44BF4B44EF
:100460005B1E52F804CB43F804CB091FF9D150F8B6
:10047000041B0029ECD1704710B400220F228B001E
:1004800013F00C039A400F4B0C00E4B234F0030459
:100490001C5934EA02020C00E4B234F003041A518D
:1004A0000A00D2B232F003029A58C0B28C0014F0A3
:1004B0000C04A0401043C9B231F00301585010BCE5
:1004C000704700000838014030B40021234A13006F
:1004D000817900292CD0214C256801688D43256045
:1004E0001F4C256801688D43256001795B181C68E5
:1004F00001680C431C601B4B1C6801688C431C602A
:10050000194C256801688D4325604179102908D16F
:100510001A6801680A431A60216800680143216073
:100520000CE0417951180A68006802430A6005E04E
:10053000017959180A68006882430A6030BC704724
:1005400000210A490968014201D0012000E0002091
:10055000C0B270470549086070470000003C014088
:10056000043C0140083C01400C3C0140143C01406B
:100570001A4908431A4908607047002100210F23D7
:10058000C17800291ED01649096811F4E061D1F53F
:10059000E061090AD1F10402DBB20B4141789140DC
:1005A00082781340194309010E4A0378D15401217E
:1005B000027812F01F0291400B4A0078401142F875
:1005C000201009E00121027812F01F029140074A31
:1005D0000078401142F82010704700000000FA0532
:1005E0000CED00E000E400E000E100E080E100E06C
:1005F00080B53C48016851F4700101603A490868CF
:1006000050F0010008600020384A10600A6838483D
:1006100002400A603748384A1060086830F4802089
:10062000086000203549086000F005F85FF00060C0
:100630003349086001BD82B0002001900020009085
:100640002949086850F480300860086810F40030C8
:1006500000900198401C01900098002803D1019857
:10066000B0F5A04FF1D10868800302D501200090B9
:1006700001E000200090009801282FD12148026855
:1006800052F0805202602048026852F440420260F8
:10069000164802680260026852F400420260026872
:1006A00052F4A0520260194A134B1A600A6852F0C1
:1006B00080720A600A689201FCD540F20571144A02
:1006C00011600168890889000160016851F0020128
:1006D0000160016811F00C010829FAD102B07047DD
:1006E0000000000088ED00E00038024008380240B9
:1006F000FFFFF6FE10300024043802400C380240A0
:1007000008ED00E0403802400070004019544007F6
:10071000003C024010B5074979441831064C7C442E
:10072000163404E00A68081D114488470146A142B6
:10073000F8D110BD2C0000003C0000004EF688519E
:10074000CEF20001086840F470000860BFF34F8FDC
:10075000BFF36F8F4FF00170E1EE100A7047000099
:10076000EFFCFFFF100000009400000000000020DC
:10077000000000007047FEE7FEE7FEE7FEE7704777
:10078000704770477047000000F00DF8002801D056
:10079000FFF7C0FFAFF300800020AFF30080FFF74A
:1007A000B9FD00F002F80120704700F001B8000028
:1007B0000746384600F002F8FBE7000080B5AFF3CB
:1007C0000080024A11001820ABBEFBE726000200A1
:1007D0000548014603B4684680F30988AFF30080FA
:1007E000FFF7ACFFFFF7D0FFA5EDF5FE014880470E
:1007F00001480047F1050008D1070008C0F9A4B07E
:10080000999282D88090000000000000FFF7FEBFA0
:10081000FFF7FEBFFFF7FEBFFFF7FEBFFFF7FEBF0C
:10082000FFF7FEBFFFF7FEBFFFF7FEBFFFF7FEBFFC
:10083000FFF7FEBFFFF7FEBFFFF7FEBFFFF7FEBFEC
:10084000FFF7FEBFFFF7FEBFFFF7FEBFFFF7FEBFDC
:10085000FFF7FEBFFFF7FEBFFFF7FEBFFFF7FEBFCC
:10086000FFF7FEBFFFF7FEBFFFF7FEBFFFF7FEBFBC
:10087000FFF7FEBFFFF7FEBFFFF7FEBFFFF7FEBFAC
:10088000FFF7FEBFFFF7FEBFFFF7FEBFFFF7FEBF9C
:10089000FFF7FEBFFFF7FEBFFFF7FEBFFFF7FEBF8C
:1008A000FFF7FEBFFFF7FEBFFFF7FEBFFFF7FEBF7C
:1008B000FFF7FEBFFFF7FEBFFFF7FEBFFFF7FEBF6C
:1008C000FFF7FEBFFFF7FEBFFFF7FEBFFFF7FEBF5C
:1008D000FFF7FEBFFFF7FEBFFFF7FEBFFFF7FEBF4C
:1008E000FFF7FEBFFFF7FEBFFFF7FEBFFFF7FEBF3C
:1008F000FFF7FEBFFFF7FEBFFFF7FEBFFFF7FEBF2C
:10090000FFF7FEBFFFF7FEBFFFF7FEBFFFF7FEBF1B
:10091000FFF7FEBFFFF7FEBFFFF7FEBFFFF7FEBF0B
:10092000FFF7FEBFFFF7FEBFFFF7FEBFFFF7FEBFFB
:10093000FFF7FEBFFFF7FEBFFFF7FEBFFFF7FEBFEB
:10094000FFF7FEBFFFF7FEBFFFF7FEBFFFF7FEBFDB
:04000005080007D117
:00000001FF
