:020000040800F2
:1000000008200020850900080D0900080F090008D4
:100010001109000813090008150900080000000074
:1000200000000000000000000000000017090008A8
:1000300019090008000000001B0900081D0900083C
:100040009D090008A1090008A5090008A9090008E0
:10005000AD090008B1090008B5090008B909000890
:10006000BD090008C1090008C5090008C909000840
:10007000CD090008D1090008D5090008D9090008F0
:10008000DD090008E1090008E5090008E9090008A0
:10009000ED090008F1090008F5090008F909000850
:1000A000FD090008010A0008050A0008090A0008FD
:1000B0009D0500080D0A0008110A0008150A00082D
:1000C000190A00081D0A0008210A0008250A00086C
:1000D000290A00082D0A0008310A0008350A00081C
:1000E000390A00083D0A0008410A0008450A0008CC
:1000F000490A00084D0A0008510A0008550A00087C
:10010000590A00085D0A0008610A0008650A00082B
:10011000690A00086D0A0008710A0008750A0008DB
:10012000790A00087D0A0008810A0008850A00088B
:10013000890A00088D0A0008910A0008950A00083B
:10014000990A00089D0A0008A10A0008A50A0008EB
:10015000A90A0008AD0A0008B10A0008B50A00089B
:10016000B90A0008BD0A0008C10A0008C50A00084B
:10017000C90A0008CD0A0008D10A0008D50A0008FB
:10018000D90A0008DD0A000810B4002204889C4B3C
:1001900098420ED0A04A90420BD0B0F1804F08D0C8
:1001A000984A904205D0984A904202D0974A90428D
:1001B00005D14FF68F72144022004C881443944AA4
:1001C000904208D0934A904205D04FF6FF42144027
:1001D00022000C89144304804A68C2620A8802859E
:1001E000984202D08C4A904201D1897A018601213D
:1001F000818210BC7047C9B2002904D0018851F037
:100200000101018004E002884FF6FE710A4002807D
:10021000704730B4002200220022038C4FF6FE7299
:1002200013400384038C8488058B4FF68F7215402E
:100230004FF6FC7215400A8815434FF6FD721340C5
:100240008A8913434A8813436D4A904202D0724A06
:10025000904215D14FF6F7721340CA8913434FF6F7
:10026000FB7213401A008B8813434FF6FF62144051
:100270004FF6FF5214400A8A144322004C8A14435A
:100280008480058389684163038430BC704730B43F
:10029000002200220022038C4FF6EF7213400384E9
:1002A000058C8388048B48F6FF7214404FF6FF429A
:1002B00014400A8854EA02244FF6DF7215408A89F6
:1002C00055EA02154A8855EA02154D4A904202D075
:1002D000514A904218D14FF67F721540CA8955EAAB
:1002E00002152A004FF6BF7515408A8855EA021597
:1002F0004FF6FF3213404FF2FF7213400A8A53EA5F
:1003000082034A8A53EA8203838004838968816373
:10031000058430BC704730B4002200220022038CD8
:100320004FF6FF6213400384058C8388848B4FF65D
:100330008F7214404FF6FC7214400A8814434FF633
:10034000FF5215408A8955EA02254A8855EA022556
:100350002B4A904202D0304A904218D14FF2FF729D
:100360001540CA8955EA02252A004FF6FF35154087
:100370008A8855EA02254EF6FF7213404DF6FF7249
:1003800013400A8A53EA02134A8A53EA021383800B
:1003900084838968C163058430BC704730B400220F
:1003A00000220022038C4EF6FF7213400384048C5B
:1003B0008588838B48F6FF7213404FF6FF42134047
:1003C0000A8853EA02234DF6FF7214408A8954EAE0
:1003D00002344A8854EA0234094A904202D00E4A52
:1003E000904205D14BF6FF7215400A8A55EA8215F4
:1003F0008580838389680164048430BC7047000071
:10040000000001400004004000080040000C0040D3
:10041000001000400014004000040140D2B2002A45
:1004200003D082891143818103E0828932EA01018C
:1004300081817047002200220022028A0A408089BE
:10044000014092B2002A04D089B2002901D00120D3
:1004500000E00020C0B2704789B2C94301827047F2
:100460001FB50121042000F015F940F61430ADF855
:100470000000BC2001900020ADF802000020ADF883
:100480000800744C69462000FFF77EFE0121200021
:10049000FFF7B1FE1FBD18B585B06020ADF80000B4
:1004A0000120ADF802000020ADF80C000020029001
:1004B000684C69462000FFF7ACFE69462000FFF754
:1004C000E6FE69462000FFF726FF69462000FFF799
:1004D00065FF06B010BD1CB50121022000F0CCF86C
:1004E00002208DF804004FF47070009000208DF809
:1004F000060000208DF80700574C6946200000F0E8
:10050000DBF802220621200000F023F90222072155
:10051000200000F01EF902220821200000F019F945
:1005200002220921200000F014F913BD1FB50400B8
:100530000121012000F0AEF846F6FF00ADF80400FE
:10054000641E02940020ADF8060001A95FF080400F
:10055000FFF71AFE01215FF08040FFF77DFF0122C7
:1005600001215FF08040FFF759FF01215FF08040DB
:10057000FFF741FE4FF4C06000F028F91C208DF811
:10058000000000208DF8010001208DF802000120FC
:100590008DF80300684600F01EF91FBD80B50121EB
:1005A0005FF08040FFF746FF002828D02B48016805
:1005B0002B4A116001682B4A116001682A4A1160B8
:1005C0002A490A682A4B1A600A68521C0A600A689B
:1005D000182A01DB05220A60016846F201429142B5
:1005E00001DB0A21016001684900016020212148E6
:1005F00000F0AAF801215FF08040FFF72DFF01BD58
:10060000E0B50121012000F037F801208DF8040049
:100610002020009000208DF8060000208DF80700B3
:100620006946144800F048F807BD80B5FFF7E8FFB9
:10063000FFF751FF05200D4908600A2007490860AF
:10064000FFF70EFFFFF727FF4FF47A70FFF76EFFFB
:10065000FEE7000000080040000402400400002003
:1006600034080040380800403C08004000000020EA
:100670004008004000000240C9B2002904D00C49E3
:100680000A681043086004E009490A6832EA000079
:1006900008607047C9B2002904D006490A681043AF
:1006A000086004E003490A6832EA00000860704705
:1006B0003038024040380240F0B4002200220022CC
:1006C00000233DE0012414FA03F20D681540954221
:1006D00035D1032502685E0015FA06F6B2430260C2
:1006E00006680F795A0097403E4306600A79012A4E
:1006F00002D00A79022A16D182685E0015FA06F63F
:10070000B243826086684F795A0097403E438660C4
:1007100042689C4032EA0404446042688C799C4000
:10072000A4B222434260C4685A00954034EA0505E9
:10073000C560C468CD795A0095402C43C4605B1CE9
:10074000102BBFD3F0BC7047426989B25140416160
:10075000704770B400230023D2B28B0013F01C0347
:100760009A400B009BB2DB1000EB83030C00A4B299
:10077000E41000EB8404246A0F258E0016F01C069A
:10078000B540AC431C620B009BB2DB1000EB830353
:100790001B6A1A4389B2C91000EB8100026270BC67
:1007A00070470EE002684368024408305FEAC37C89
:1007B00044BF4B445B1E52F804CB43F804CB091FE3
:1007C000F9D150F8041B0029ECD170471A490843AD
:1007D0001A4908607047002100210F23C1780029C1
:1007E0001ED01649096811F4E061D1F5E061090AEB
:1007F000D1F10402DBB20B41417891408278134081
:10080000194309010E4A0378D1540121027812F0EC
:100810001F0291400B4A0078401142F8201009E075
:100820000121027812F01F029140074A007840111E
:1008300042F82010704700000000FA050CED00E0BF
:1008400000E400E000E100E080E100E00F48016822
:1008500051F4700101600E49086850F00100086011
:1008600000200C4A10600A680B4802400A600B48DE
:100870000B4A1060086830F48020086000200949A5
:1008800008605FF0006008490860704788ED00E08C
:100890000038024008380240FFFFF6FE1030002406
:1008A000043802400C38024008ED00E010B507495A
:1008B00079441831064C7C44163404E00A68081D5B
:1008C000114488470146A142F8D110BD2C00000018
:1008D0003C0000004EF68851CEF20001086840F45A
:1008E00070000860BFF34F8FBFF36F8F4FF0017040
:1008F000E1EE100A70470000ABFEFFFF08000000A9
:100900009400000000000020000000007047FEE797
:10091000FEE7FEE7FEE7704770477047704700004C
:1009200000F00DF8002801D0FFF7C0FFAFF3008002
:100930000020AFF30080FFF778FE00F002F80120FE
:10094000704700F001B800000746384600F002F892
:10095000FBE7000080B5AFF30080024A11001820C9
:10096000ABBEFBE7260002000548014603B468461B
:1009700080F30988AFF30080FFF7ACFFFFF7D0FFEB
:10098000A5EDF5FE01488047014800474D080008E5
:1009900069090008050000000A000000FFF7FEBF1B
:1009A000FFF7FEBFFFF7FEBFFFF7FEBFFFF7FEBF7B
:1009B000FFF7FEBFFFF7FEBFFFF7FEBFFFF7FEBF6B
:1009C000FFF7FEBFFFF7FEBFFFF7FEBFFFF7FEBF5B
:1009D000FFF7FEBFFFF7FEBFFFF7FEBFFFF7FEBF4B
:1009E000FFF7FEBFFFF7FEBFFFF7FEBFFFF7FEBF3B
:1009F000FFF7FEBFFFF7FEBFFFF7FEBFFFF7FEBF2B
:100A0000FFF7FEBFFFF7FEBFFFF7FEBFFFF7FEBF1A
:100A1000FFF7FEBFFFF7FEBFFFF7FEBFFFF7FEBF0A
:100A2000FFF7FEBFFFF7FEBFFFF7FEBFFFF7FEBFFA
:100A3000FFF7FEBFFFF7FEBFFFF7FEBFFFF7FEBFEA
:100A4000FFF7FEBFFFF7FEBFFFF7FEBFFFF7FEBFDA
:100A5000FFF7FEBFFFF7FEBFFFF7FEBFFFF7FEBFCA
:100A6000FFF7FEBFFFF7FEBFFFF7FEBFFFF7FEBFBA
:100A7000FFF7FEBFFFF7FEBFFFF7FEBFFFF7FEBFAA
:100A8000FFF7FEBFFFF7FEBFFFF7FEBFFFF7FEBF9A
:100A9000FFF7FEBFFFF7FEBFFFF7FEBFFFF7FEBF8A
:100AA000FFF7FEBFFFF7FEBFFFF7FEBFFFF7FEBF7A
:100AB000FFF7FEBFFFF7FEBFFFF7FEBFFFF7FEBF6A
:100AC000FFF7FEBFFFF7FEBFFFF7FEBFFFF7FEBF5A
:100AD000FFF7FEBFFFF7FEBFFFF7FEBFFFF7FEBF4A
:04000005080009697D
:00000001FF
