:020000040800F2
:1000000028200020690C0008FF07000801080008EC
:1000100003080008050800080708000800000000A1
:1000200000000000000000000000000009080008B7
:100030000B080008000000000D0800080F08000869
:10004000790C00087D0C0008810C0008850C000864
:10005000890C00088D0C0008910C0008950C000814
:10006000990C00089D0C0008A10C0008A50C0008C4
:10007000A90C0008AD0C0008B10C0008B50C000874
:10008000B90C0008BD0C000803040008C10C0008EE
:10009000C50C0008C90C0008CD0C0008D10C0008E4
:1000A000D50C0008D90C0008DD0C0008E10C000894
:1000B000E50C0008E90C0008ED0C0008F10C000844
:1000C000F50C0008F90C0008FD0C0008010D0008F3
:1000D000050D0008090D00080D0D0008110D0008A0
:1000E000150D0008190D00081D0D0008210D000850
:1000F000250D0008290D00082D0D0008310D000800
:10010000350D0008390D00086B0200083D0D000890
:10011000410D0008450D0008490D00084D0D00086F
:10012000510D0008550D0008590D00085D0D00081F
:10013000610D0008650D0008690D00086D0D0008CF
:10014000710D0008750D0008790D00087D0D00087F
:10015000810D0008850D0008890D00088D0D00082F
:10016000910D0008950D0008990D00089D0D0008DF
:10017000A10D0008A50D0008A90D0008AD0D00088F
:10018000B10D0008B50D000801B402E00098401E52
:10019000009000980028F9D101B07047E0B5012126
:1001A000012000F0D7F901208DF8040020200090F4
:1001B00000208DF8060000208DF807006946AD4844
:1001C00000F002FA07BD38B50400AB4D80212800CD
:1001D00000F008FB0028F8D0E4B2210089B2280022
:1001E00000F0F8FA31BD10B5A34C2021200000F03A
:1001F000F9FA0028F8D0200000F0F0FAC0B210BDE3
:100200001FB504000121082000F0B2F943F67F6019
:10021000ADF80400641E02940020ADF80600974C6F
:1002200001A9200000F0F4FA0121200000F062FB97
:1002300001220121200000F03FFB0121200000F0FD
:100240001EFB4FF4C06000F059FB32208DF8000017
:1002500000208DF8010001208DF8020001208DF8AA
:100260000300684600F04FFB1FBDF8B5834C012129
:10027000200000F02DFB002827D0814D814E8248C0
:10028000018889B2090A2A88B1542988491C298021
:100290000088298870542888401C288028881428C1
:1002A0000FD1A520FFF78FFF002703E0F05DFFF7D8
:1002B0008AFF7F1C142FF9DB5A20FFF784FF0020F0
:1002C00028800121200000F015FBF1BD10B586B09B
:1002D0000121012000F03EF902208DF804000020E9
:1002E0008DF8060001208DF807000C200090614C6D
:1002F0006946200000F068F907220221200000F082
:10030000B2F907220321200000F0ADF901215FF4CA
:10031000003000F02DF95FF4E13002900020ADF8DC
:100320000C000020ADF80E000020ADF810000C20ED
:10033000ADF81200504C02A9200000F0D9F90121BB
:10034000200000F039FA06B010BD18B58DB00121BB
:10035000022000F0FFF80220019003208DF8080031
:1003600000208DF80B0001A9484800F02DF94FF44A
:10037000C06000F0C3FA12208DF8000001208DF853
:10038000010002208DF8020001208DF8030068466C
:1003900000F0B9FA01214FF4807000F0F7F8002066
:1003A000099000200B905FF440300A9009A800F0FB
:1003B0000AFB0020039000208DF8100001208DF82A
:1003C00011000020059000200690002007900120D9
:1003D0008DF820002E4C03A9200000F0CFFA002356
:1003E00001220921200000F00AFB012240F2052130
:1003F000200000F079FB0121200000F0F3FA0EB09C
:1004000010BD38B5224C40F205252900200000F02F
:100410007CFB002808D02900200000F08EFB200083
:1004200000F057FB1849088031BD38B5FFF7B6FE1C
:100430000A20FFF7E5FEFFF749FFFFF786FF1448A4
:1004400000F042FBFFF7CFFEC0B20028FAD0094C03
:100450002021200000F000F942F210752800FFF77B
:1004600093FE2021200000F0FAF82800FFF78CFE10
:10047000E8E700000000024000440040000C00409B
:10048000260000201000002024000020000402406C
:100490000020014010B40021002100210221002190
:1004A0000221DFF80421116811F00C01002904D0A9
:1004B000042906D0082908D02DE0DFF8F4100160E7
:1004C0002CE0DFF8F010016028E0DFF8E040216860
:1004D000C1F38051236813F03F03002909D0DFF8EE
:1004E000D410B1FBF3F32168C1F3881101FB03F1D0
:1004F00008E0DFF8BC10B1FBF3F32168C1F3881109
:1005000001FB03F12368C3F301435B1C5B00B1FBF8
:10051000F3F1016002E0DFF898100160116811F05A
:10052000F0010909DFF89030595C0468CC40446060
:10053000116811F4E051890A595C4468CC40846028
:10054000116811F46041490B595C4268CA40C260AD
:1005500010BC7047C9B2002904D018490A6810437A
:10056000086004E015490A6832EA00000860704734
:10057000C9B2002904D012490A681043086004E097
:100580000F490A6832EA000008607047C9B20029C2
:1005900004D00C490A681043086004E009490A685D
:1005A00032EA000008607047083802400438024010
:1005B0000024F40040787D01000000203038024023
:1005C0004038024044380240F0B4002200220022A9
:1005D00000233DE0012414FA03F20D681540954212
:1005E00035D1032502685E0015FA06F6B2430260B3
:1005F00006680F795A0097403E4306600A79012A3F
:1006000002D00A79022A16D182685E0015FA06F62F
:10061000B243826086684F795A0097403E438660B5
:1006200042689C4032EA0404446042688C799C40F1
:10063000A4B222434260C4685A00954034EA0505DA
:10064000C560C468CD795A0095402C43C4605B1CDA
:10065000102BBFD3F0BC704789B28161704789B25B
:1006600009048161704770B400230023D2B28B006B
:1006700013F01C039A400B009BB2DB1000EB8303CA
:100680000C00A4B2E41000EB8404246A0F258E0051
:1006900016F01C06B540AC431C620B009BB2DB108D
:1006A00000EB83031B6A1A4389B2C91000EB810077
:1006B000026270BC704730B50168846842184168B6
:1006C00002EB5103C90703D54C4401E0491C08D192
:1006D0009A4218BF12F9011B01D10C3030BD12F83B
:1006E000015B002904F8015BF0D4491EF7D5EFE760
:1006F00038B584B005000C00002000200020002048
:10070000A0890028298A31F44051E08801432982D8
:10071000A98928480140A0880143208901436089B4
:100720000143A981A98A31F44071A0890143A982BA
:100730006846FFF7AFFE1D48854202D01C4885423F
:1007400001D1039900E00299A889000406D5192077
:10075000414320684000B1FBF0F205E0192041431D
:1007600020688000B1FBF0F26420B2FBF0F10901D7
:100770000B001B097FF0630000FB0322A889000423
:1007800008D5D20032326420B2FBF0F010F007003E
:10079000014307E0120132326420B2FBF0F010F0A6
:1007A0000F000143298105B030BD00000010014059
:1007B00000140140F3E9FFFFC9B2002904D0818988
:1007C00051F40051818104E082894DF6FF710A40A5
:1007D00082817047C905C90D818070478088C00536
:1007E000C00D704700220A0092B2B2F5007F008867
:1007F000084201D0012000E00020C0B270477047DD
:10080000FEE7FEE7FEE7FEE7704770477047704778
:1008100010B400220488214B98420ED0254A904201
:100820000BD0B0F1804F08D01D4A904205D01D4A30
:10083000904202D01C4A904205D14FF68F7214406C
:1008400022004C881443194A904208D0184A90421A
:1008500005D04FF6FF42144022000C891443048057
:100860004A68C2620A880285984202D0114A9042C0
:1008700001D1897A01860121818210BC7047C9B2F9
:10088000002904D0018851F00101018004E00288B0
:100890004FF6FE710A4002807047000000000140E0
:1008A0000004004000080040000C00400010004020
:1008B0000014004000040140D2B2002A03D0828913
:1008C0001143818103E0828932EA0101818170470D
:1008D000002200220022028A0A408089014092B24E
:1008E000002A04D089B2002901D0012000E00020B4
:1008F000C0B2704789B2C943018270471A490843A0
:100900001A4908607047002100210F23C17800298F
:100910001ED01649096811F4E061D1F5E061090AB9
:10092000D1F10402DBB20B4141789140827813404F
:10093000194309010E4A0378D1540121027812F0BB
:100940001F0291400B4A0078401142F8201009E044
:100950000121027812F01F029140074A00784011ED
:1009600042F82010704700000000FA050CED00E08E
:1009700000E400E000E100E080E100E010B40022CB
:1009800000234468544A14400A7954EA02240A684D
:10099000144344608468514A14400A691443CA6885
:1009A00014438A6814434A7954EA42048460C26A50
:1009B00032F47002097D491E0B43DBB252EA035246
:1009C000C26210BC70470021454B1A6845490A4075
:1009D00001680A4341680A4381680A43C0680243C8
:1009E0001A607047C9B2002904D0816851F0010132
:1009F000816003E081684908490081607047F0B474
:100A0000002400240C00E4B20A2C12DBC56807267F
:100A1000B1F10A04032714FB07F4A640B543DBB287
:100A2000B1F10A04032614FB06F4A3402B43C36070
:100A30000DE005690726032411FB04F4A640B54325
:100A4000DBB2032411FB04F4A3402B430361130026
:100A5000DBB2072B10DA446B1F25531E052613FB50
:100A600006F39D40AC43C9B2521E052312FB03F2AC
:100A700091402143416325E01300DBB20D2B10DAD6
:100A8000046B1F25D31F052613FB06F39D40AC43C3
:100A9000C9B2D21F052312FB03F291402143016327
:100AA00010E0C46A1F25B2F10D03052613FB06F3FF
:100AB0009D40AC43C9B20D3A052312FB03F29140AD
:100AC0002143C162F0BC7047816851F08041816070
:100AD0007047C06C80B27047FFFEFFFCFDF7FFC09F
:100AE00004230140E030FCFF0023C9B2012313FAC4
:100AF00001F1D2B2002A03D042681143416003E001
:100B0000426832EA01014160704710B400220022BD
:100B100000220A0092B2120A92B24368012414FA27
:100B200001F119400068104203D0002901D00120D2
:100B300000E00020C0B210BC7047002289B2090A50
:100B4000C9B2C943016070470F48016851F4700190
:100B500001600E49086850F00100086000200C4A4E
:100B600010600A680B4802400A600B480B4A10608C
:100B7000086830F4802008600020094908605FF0B0
:100B8000006008490860704788ED00E000380240C6
:100B900008380240FFFFF6FE1030002404380240FF
:100BA0000C38024008ED00E010B5074979441831CF
:100BB000064C7C44163404E00A68081D114488473A
:100BC0000146A142F8D110BD2C0000003800000001
:100BD0004EF68851CEF20001086840F470000860BB
:100BE000BFF34F8FBFF36F8F4FF00170E1EE100A2C
:100BF00070470000C3FAFFFFC001000022000000A0
:100C00000000002000F00DF8002801D0FFF7CCFF15
:100C1000AFF300800020AFF30080FFF706FC00F088
:100C200002F80120704700F001B80000074638467E
:100C300000F002F8FBE7000080B5AFF30080024A45
:100C400011001820ABBEFBE7260002000548014654
:100C500003B4684680F30988AFF30080FFF7B8FF5C
:100C6000FFF7D0FFA5EDF5FE01488047014800479A
:100C7000490B00084D0C0008FFF7FEBFFFF7FEBF51
:100C8000FFF7FEBFFFF7FEBFFFF7FEBFFFF7FEBF98
:100C9000FFF7FEBFFFF7FEBFFFF7FEBFFFF7FEBF88
:100CA000FFF7FEBFFFF7FEBFFFF7FEBFFFF7FEBF78
:100CB000FFF7FEBFFFF7FEBFFFF7FEBFFFF7FEBF68
:100CC000FFF7FEBFFFF7FEBFFFF7FEBFFFF7FEBF58
:100CD000FFF7FEBFFFF7FEBFFFF7FEBFFFF7FEBF48
:100CE000FFF7FEBFFFF7FEBFFFF7FEBFFFF7FEBF38
:100CF000FFF7FEBFFFF7FEBFFFF7FEBFFFF7FEBF28
:100D0000FFF7FEBFFFF7FEBFFFF7FEBFFFF7FEBF17
:100D1000FFF7FEBFFFF7FEBFFFF7FEBFFFF7FEBF07
:100D2000FFF7FEBFFFF7FEBFFFF7FEBFFFF7FEBFF7
:100D3000FFF7FEBFFFF7FEBFFFF7FEBFFFF7FEBFE7
:100D4000FFF7FEBFFFF7FEBFFFF7FEBFFFF7FEBFD7
:100D5000FFF7FEBFFFF7FEBFFFF7FEBFFFF7FEBFC7
:100D6000FFF7FEBFFFF7FEBFFFF7FEBFFFF7FEBFB7
:100D7000FFF7FEBFFFF7FEBFFFF7FEBFFFF7FEBFA7
:100D8000FFF7FEBFFFF7FEBFFFF7FEBFFFF7FEBF97
:100D9000FFF7FEBFFFF7FEBFFFF7FEBFFFF7FEBF87
:100DA000FFF7FEBFFFF7FEBFFFF7FEBFFFF7FEBF77
:100DB000FFF7FEBFFFF7FEBFFC000B0102030401BB
:090DC00002030406070809E8001B
:0400000508000C4D96
:00000001FF
